{
  "_format": "hh-sol-artifact-1",
  "contractName": "CztToken",
  "sourceName": "contracts/MTGToken/MTGToken_01.sol",
  "abi": [
    {
      "inputs": [],
      "stateMutability": "nonpayable",
      "type": "constructor"
    },
    {
      "anonymous": false,
      "inputs": [
        {
          "indexed": true,
          "internalType": "address",
          "name": "owner",
          "type": "address"
        },
        {
          "indexed": true,
          "internalType": "address",
          "name": "spender",
          "type": "address"
        },
        {
          "indexed": false,
          "internalType": "uint256",
          "name": "value",
          "type": "uint256"
        }
      ],
      "name": "Approval",
      "type": "event"
    },
    {
      "anonymous": false,
      "inputs": [
        {
          "indexed": true,
          "internalType": "address",
          "name": "previousOwner",
          "type": "address"
        },
        {
          "indexed": true,
          "internalType": "address",
          "name": "newOwner",
          "type": "address"
        }
      ],
      "name": "OwnershipTransferred",
      "type": "event"
    },
    {
      "anonymous": false,
      "inputs": [
        {
          "indexed": true,
          "internalType": "address",
          "name": "from",
          "type": "address"
        },
        {
          "indexed": true,
          "internalType": "address",
          "name": "to",
          "type": "address"
        },
        {
          "indexed": false,
          "internalType": "uint256",
          "name": "value",
          "type": "uint256"
        }
      ],
      "name": "Transfer",
      "type": "event"
    },
    {
      "anonymous": false,
      "inputs": [
        {
          "indexed": false,
          "internalType": "address",
          "name": "",
          "type": "address"
        }
      ],
      "name": "checkAddr",
      "type": "event"
    },
    {
      "anonymous": false,
      "inputs": [
        {
          "indexed": false,
          "internalType": "address",
          "name": "",
          "type": "address"
        },
        {
          "indexed": false,
          "internalType": "uint256",
          "name": "",
          "type": "uint256"
        }
      ],
      "name": "checkParam",
      "type": "event"
    },
    {
      "stateMutability": "payable",
      "type": "fallback"
    },
    {
      "inputs": [
        {
          "internalType": "address",
          "name": "owner",
          "type": "address"
        },
        {
          "internalType": "address",
          "name": "spender",
          "type": "address"
        }
      ],
      "name": "allowance",
      "outputs": [
        {
          "internalType": "uint256",
          "name": "",
          "type": "uint256"
        }
      ],
      "stateMutability": "view",
      "type": "function"
    },
    {
      "inputs": [
        {
          "internalType": "address",
          "name": "spender",
          "type": "address"
        },
        {
          "internalType": "uint256",
          "name": "amount",
          "type": "uint256"
        }
      ],
      "name": "approve",
      "outputs": [
        {
          "internalType": "bool",
          "name": "",
          "type": "bool"
        }
      ],
      "stateMutability": "nonpayable",
      "type": "function"
    },
    {
      "inputs": [
        {
          "internalType": "address",
          "name": "account",
          "type": "address"
        }
      ],
      "name": "balanceOf",
      "outputs": [
        {
          "internalType": "uint256",
          "name": "",
          "type": "uint256"
        }
      ],
      "stateMutability": "view",
      "type": "function"
    },
    {
      "inputs": [
        {
          "internalType": "uint256",
          "name": "_value",
          "type": "uint256"
        }
      ],
      "name": "burn",
      "outputs": [],
      "stateMutability": "nonpayable",
      "type": "function"
    },
    {
      "inputs": [
        {
          "internalType": "address",
          "name": "account",
          "type": "address"
        },
        {
          "internalType": "uint256",
          "name": "amount",
          "type": "uint256"
        }
      ],
      "name": "burnFrom",
      "outputs": [],
      "stateMutability": "nonpayable",
      "type": "function"
    },
    {
      "inputs": [],
      "name": "decimals",
      "outputs": [
        {
          "internalType": "uint8",
          "name": "",
          "type": "uint8"
        }
      ],
      "stateMutability": "view",
      "type": "function"
    },
    {
      "inputs": [
        {
          "internalType": "address",
          "name": "spender",
          "type": "address"
        },
        {
          "internalType": "uint256",
          "name": "subtractedValue",
          "type": "uint256"
        }
      ],
      "name": "decreaseAllowance",
      "outputs": [
        {
          "internalType": "bool",
          "name": "",
          "type": "bool"
        }
      ],
      "stateMutability": "nonpayable",
      "type": "function"
    },
    {
      "inputs": [],
      "name": "destroy",
      "outputs": [],
      "stateMutability": "nonpayable",
      "type": "function"
    },
    {
      "inputs": [
        {
          "internalType": "address",
          "name": "spender",
          "type": "address"
        },
        {
          "internalType": "uint256",
          "name": "addedValue",
          "type": "uint256"
        }
      ],
      "name": "increaseAllowance",
      "outputs": [
        {
          "internalType": "bool",
          "name": "",
          "type": "bool"
        }
      ],
      "stateMutability": "nonpayable",
      "type": "function"
    },
    {
      "inputs": [],
      "name": "name",
      "outputs": [
        {
          "internalType": "string",
          "name": "",
          "type": "string"
        }
      ],
      "stateMutability": "view",
      "type": "function"
    },
    {
      "inputs": [],
      "name": "owner",
      "outputs": [
        {
          "internalType": "address",
          "name": "",
          "type": "address"
        }
      ],
      "stateMutability": "view",
      "type": "function"
    },
    {
      "inputs": [],
      "name": "renounceOwnership",
      "outputs": [],
      "stateMutability": "nonpayable",
      "type": "function"
    },
    {
      "inputs": [],
      "name": "symbol",
      "outputs": [
        {
          "internalType": "string",
          "name": "",
          "type": "string"
        }
      ],
      "stateMutability": "view",
      "type": "function"
    },
    {
      "inputs": [],
      "name": "totalSupply",
      "outputs": [
        {
          "internalType": "uint256",
          "name": "",
          "type": "uint256"
        }
      ],
      "stateMutability": "view",
      "type": "function"
    },
    {
      "inputs": [
        {
          "internalType": "address",
          "name": "to",
          "type": "address"
        },
        {
          "internalType": "uint256",
          "name": "amount",
          "type": "uint256"
        }
      ],
      "name": "transfer",
      "outputs": [
        {
          "internalType": "bool",
          "name": "",
          "type": "bool"
        }
      ],
      "stateMutability": "nonpayable",
      "type": "function"
    },
    {
      "inputs": [
        {
          "internalType": "address",
          "name": "from",
          "type": "address"
        },
        {
          "internalType": "address",
          "name": "to",
          "type": "address"
        },
        {
          "internalType": "uint256",
          "name": "amount",
          "type": "uint256"
        }
      ],
      "name": "transferFrom",
      "outputs": [
        {
          "internalType": "bool",
          "name": "",
          "type": "bool"
        }
      ],
      "stateMutability": "nonpayable",
      "type": "function"
    },
    {
      "inputs": [
        {
          "internalType": "address",
          "name": "newOwner",
          "type": "address"
        }
      ],
      "name": "transferOwnership",
      "outputs": [],
      "stateMutability": "nonpayable",
      "type": "function"
    },
    {
      "stateMutability": "payable",
      "type": "receive"
    }
  ],
  "bytecode": "0x608060405260006006553480156200001657600080fd5b506040518060400160405280600d81526020017f436861205a696120546f6b656e000000000000000000000000000000000000008152506040518060400160405280600381526020017f435a54000000000000000000000000000000000000000000000000000000000081525081600390805190602001906200009b929190620003bb565b508060049080519060200190620000b4929190620003bb565b505050620000d7620000cb6200013760201b60201c565b6200013f60201b60201c565b620000e76200020560201b60201c565b60ff16600a620000f89190620005f8565b620186a062000108919062000649565b60068190555062000131620001226200020e60201b60201c565b6006546200023860201b60201c565b6200081d565b600033905090565b6000600560009054906101000a900473ffffffffffffffffffffffffffffffffffffffff16905081600560006101000a81548173ffffffffffffffffffffffffffffffffffffffff021916908373ffffffffffffffffffffffffffffffffffffffff1602179055508173ffffffffffffffffffffffffffffffffffffffff168173ffffffffffffffffffffffffffffffffffffffff167f8be0079c531659141344cd1fd0a4f28419497f9722a3daafe3b4186f6b6457e060405160405180910390a35050565b60006012905090565b6000600560009054906101000a900473ffffffffffffffffffffffffffffffffffffffff16905090565b600073ffffffffffffffffffffffffffffffffffffffff168273ffffffffffffffffffffffffffffffffffffffff161415620002ab576040517f08c379a0000000000000000000000000000000000000000000000000000000008152600401620002a2906200070b565b60405180910390fd5b620002bf60008383620003b160201b60201c565b8060026000828254620002d391906200072d565b92505081905550806000808473ffffffffffffffffffffffffffffffffffffffff1673ffffffffffffffffffffffffffffffffffffffff16815260200190815260200160002060008282546200032a91906200072d565b925050819055508173ffffffffffffffffffffffffffffffffffffffff16600073ffffffffffffffffffffffffffffffffffffffff167fddf252ad1be2c89b69c2b068fc378daa952ba7f163c4a11628f55a4df523b3ef836040516200039191906200079b565b60405180910390a3620003ad60008383620003b660201b60201c565b5050565b505050565b505050565b828054620003c990620007e7565b90600052602060002090601f016020900481019282620003ed576000855562000439565b82601f106200040857805160ff191683800117855562000439565b8280016001018555821562000439579182015b82811115620004385782518255916020019190600101906200041b565b5b5090506200044891906200044c565b5090565b5b80821115620004675760008160009055506001016200044d565b5090565b7f4e487b7100000000000000000000000000000000000000000000000000000000600052601160045260246000fd5b60008160011c9050919050565b6000808291508390505b6001851115620004f957808604811115620004d157620004d06200046b565b5b6001851615620004e15780820291505b8081029050620004f1856200049a565b9450620004b1565b94509492505050565b600082620005145760019050620005e7565b81620005245760009050620005e7565b81600181146200053d576002811462000548576200057e565b6001915050620005e7565b60ff8411156200055d576200055c6200046b565b5b8360020a9150848211156200057757620005766200046b565b5b50620005e7565b5060208310610133831016604e8410600b8410161715620005b85782820a905083811115620005b257620005b16200046b565b5b620005e7565b620005c78484846001620004a7565b92509050818404811115620005e157620005e06200046b565b5b81810290505b9392505050565b6000819050919050565b60006200060582620005ee565b91506200061283620005ee565b9250620006417fffffffffffffffffffffffffffffffffffffffffffffffffffffffffffffffff848462000502565b905092915050565b60006200065682620005ee565b91506200066383620005ee565b9250817fffffffffffffffffffffffffffffffffffffffffffffffffffffffffffffffff04831182151516156200069f576200069e6200046b565b5b828202905092915050565b600082825260208201905092915050565b7f45524332303a206d696e7420746f20746865207a65726f206164647265737300600082015250565b6000620006f3601f83620006aa565b91506200070082620006bb565b602082019050919050565b600060208201905081810360008301526200072681620006e4565b9050919050565b60006200073a82620005ee565b91506200074783620005ee565b9250827fffffffffffffffffffffffffffffffffffffffffffffffffffffffffffffffff038211156200077f576200077e6200046b565b5b828201905092915050565b6200079581620005ee565b82525050565b6000602082019050620007b260008301846200078a565b92915050565b7f4e487b7100000000000000000000000000000000000000000000000000000000600052602260045260246000fd5b600060028204905060018216806200080057607f821691505b60208210811415620008175762000816620007b8565b5b50919050565b611dbf806200082d6000396000f3fe6080604052600436106101025760003560e01c8063715018a61161009557806395d89b411161006457806395d89b411461032b578063a457c2d714610356578063a9059cbb14610393578063dd62ed3e146103d0578063f2fde38b1461040d57610109565b8063715018a6146102a957806379cc6790146102c057806383197ef0146102e95780638da5cb5b1461030057610109565b8063313ce567116100d1578063313ce567146101db578063395093511461020657806342966c681461024357806370a082311461026c57610109565b806306fdde031461010b578063095ea7b31461013657806318160ddd1461017357806323b872dd1461019e57610109565b3661010957005b005b34801561011757600080fd5b50610120610436565b60405161012d9190611360565b60405180910390f35b34801561014257600080fd5b5061015d6004803603810190610158919061141b565b6104c8565b60405161016a9190611476565b60405180910390f35b34801561017f57600080fd5b506101886104eb565b60405161019591906114a0565b60405180910390f35b3480156101aa57600080fd5b506101c560048036038101906101c091906114bb565b6104f5565b6040516101d29190611476565b60405180910390f35b3480156101e757600080fd5b506101f0610524565b6040516101fd919061152a565b60405180910390f35b34801561021257600080fd5b5061022d6004803603810190610228919061141b565b61052d565b60405161023a9190611476565b60405180910390f35b34801561024f57600080fd5b5061026a60048036038101906102659190611545565b6105d7565b005b34801561027857600080fd5b50610293600480360381019061028e9190611572565b61065f565b6040516102a091906114a0565b60405180910390f35b3480156102b557600080fd5b506102be6106a7565b005b3480156102cc57600080fd5b506102e760048036038101906102e2919061141b565b61072f565b005b3480156102f557600080fd5b506102fe61074f565b005b34801561030c57600080fd5b506103156107e4565b60405161032291906115ae565b60405180910390f35b34801561033757600080fd5b5061034061080e565b60405161034d9190611360565b60405180910390f35b34801561036257600080fd5b5061037d6004803603810190610378919061141b565b6108a0565b60405161038a9190611476565b60405180910390f35b34801561039f57600080fd5b506103ba60048036038101906103b5919061141b565b61098a565b6040516103c79190611476565b60405180910390f35b3480156103dc57600080fd5b506103f760048036038101906103f291906115c9565b6109ad565b60405161040491906114a0565b60405180910390f35b34801561041957600080fd5b50610434600480360381019061042f9190611572565b610a34565b005b60606003805461044590611638565b80601f016020809104026020016040519081016040528092919081815260200182805461047190611638565b80156104be5780601f10610493576101008083540402835291602001916104be565b820191906000526020600020905b8154815290600101906020018083116104a157829003601f168201915b5050505050905090565b6000806104d3610b2c565b90506104e0818585610b34565b600191505092915050565b6000600254905090565b600080610500610b2c565b905061050d858285610cff565b610518858585610d8b565b60019150509392505050565b60006012905090565b600080610538610b2c565b90506105cc818585600160008673ffffffffffffffffffffffffffffffffffffffff1673ffffffffffffffffffffffffffffffffffffffff16815260200190815260200160002060008973ffffffffffffffffffffffffffffffffffffffff1673ffffffffffffffffffffffffffffffffffffffff168152602001908152602001600020546105c79190611699565b610b34565b600191505092915050565b6105df610b2c565b73ffffffffffffffffffffffffffffffffffffffff166105fd6107e4565b73ffffffffffffffffffffffffffffffffffffffff1614610653576040517f08c379a000000000000000000000000000000000000000000000000000000000815260040161064a9061173b565b60405180910390fd5b61065c8161100c565b50565b60008060008373ffffffffffffffffffffffffffffffffffffffff1673ffffffffffffffffffffffffffffffffffffffff168152602001908152602001600020549050919050565b6106af610b2c565b73ffffffffffffffffffffffffffffffffffffffff166106cd6107e4565b73ffffffffffffffffffffffffffffffffffffffff1614610723576040517f08c379a000000000000000000000000000000000000000000000000000000000815260040161071a9061173b565b60405180910390fd5b61072d6000611020565b565b6107418261073b610b2c565b83610cff565b61074b82826110e6565b5050565b6107576107e4565b73ffffffffffffffffffffffffffffffffffffffff163373ffffffffffffffffffffffffffffffffffffffff16146107c4576040517f08c379a00000000000000000000000000000000000000000000000000000000081526004016107bb906117a7565b60405180910390fd5b6107cc6107e4565b73ffffffffffffffffffffffffffffffffffffffff16ff5b6000600560009054906101000a900473ffffffffffffffffffffffffffffffffffffffff16905090565b60606004805461081d90611638565b80601f016020809104026020016040519081016040528092919081815260200182805461084990611638565b80156108965780601f1061086b57610100808354040283529160200191610896565b820191906000526020600020905b81548152906001019060200180831161087957829003601f168201915b5050505050905090565b6000806108ab610b2c565b90506000600160008373ffffffffffffffffffffffffffffffffffffffff1673ffffffffffffffffffffffffffffffffffffffff16815260200190815260200160002060008673ffffffffffffffffffffffffffffffffffffffff1673ffffffffffffffffffffffffffffffffffffffff16815260200190815260200160002054905083811015610971576040517f08c379a000000000000000000000000000000000000000000000000000000000815260040161096890611839565b60405180910390fd5b61097e8286868403610b34565b60019250505092915050565b600080610995610b2c565b90506109a2818585610d8b565b600191505092915050565b6000600160008473ffffffffffffffffffffffffffffffffffffffff1673ffffffffffffffffffffffffffffffffffffffff16815260200190815260200160002060008373ffffffffffffffffffffffffffffffffffffffff1673ffffffffffffffffffffffffffffffffffffffff16815260200190815260200160002054905092915050565b610a3c610b2c565b73ffffffffffffffffffffffffffffffffffffffff16610a5a6107e4565b73ffffffffffffffffffffffffffffffffffffffff1614610ab0576040517f08c379a0000000000000000000000000000000000000000000000000000000008152600401610aa79061173b565b60405180910390fd5b600073ffffffffffffffffffffffffffffffffffffffff168173ffffffffffffffffffffffffffffffffffffffff161415610b20576040517f08c379a0000000000000000000000000000000000000000000000000000000008152600401610b17906118cb565b60405180910390fd5b610b2981611020565b50565b600033905090565b600073ffffffffffffffffffffffffffffffffffffffff168373ffffffffffffffffffffffffffffffffffffffff161415610ba4576040517f08c379a0000000000000000000000000000000000000000000000000000000008152600401610b9b9061195d565b60405180910390fd5b600073ffffffffffffffffffffffffffffffffffffffff168273ffffffffffffffffffffffffffffffffffffffff161415610c14576040517f08c379a0000000000000000000000000000000000000000000000000000000008152600401610c0b906119ef565b60405180910390fd5b80600160008573ffffffffffffffffffffffffffffffffffffffff1673ffffffffffffffffffffffffffffffffffffffff16815260200190815260200160002060008473ffffffffffffffffffffffffffffffffffffffff1673ffffffffffffffffffffffffffffffffffffffff168152602001908152602001600020819055508173ffffffffffffffffffffffffffffffffffffffff168373ffffffffffffffffffffffffffffffffffffffff167f8c5be1e5ebec7d5bd14f71427d1e84f3dd0314c0f7b2291e5b200ac8c7c3b92583604051610cf291906114a0565b60405180910390a3505050565b6000610d0b84846109ad565b90507fffffffffffffffffffffffffffffffffffffffffffffffffffffffffffffffff8114610d855781811015610d77576040517f08c379a0000000000000000000000000000000000000000000000000000000008152600401610d6e90611a5b565b60405180910390fd5b610d848484848403610b34565b5b50505050565b600073ffffffffffffffffffffffffffffffffffffffff168373ffffffffffffffffffffffffffffffffffffffff161415610dfb576040517f08c379a0000000000000000000000000000000000000000000000000000000008152600401610df290611aed565b60405180910390fd5b600073ffffffffffffffffffffffffffffffffffffffff168273ffffffffffffffffffffffffffffffffffffffff161415610e6b576040517f08c379a0000000000000000000000000000000000000000000000000000000008152600401610e6290611b7f565b60405180910390fd5b610e768383836112bd565b60008060008573ffffffffffffffffffffffffffffffffffffffff1673ffffffffffffffffffffffffffffffffffffffff16815260200190815260200160002054905081811015610efc576040517f08c379a0000000000000000000000000000000000000000000000000000000008152600401610ef390611c11565b60405180910390fd5b8181036000808673ffffffffffffffffffffffffffffffffffffffff1673ffffffffffffffffffffffffffffffffffffffff16815260200190815260200160002081905550816000808573ffffffffffffffffffffffffffffffffffffffff1673ffffffffffffffffffffffffffffffffffffffff1681526020019081526020016000206000828254610f8f9190611699565b925050819055508273ffffffffffffffffffffffffffffffffffffffff168473ffffffffffffffffffffffffffffffffffffffff167fddf252ad1be2c89b69c2b068fc378daa952ba7f163c4a11628f55a4df523b3ef84604051610ff391906114a0565b60405180910390a36110068484846112c2565b50505050565b61101d611017610b2c565b826110e6565b50565b6000600560009054906101000a900473ffffffffffffffffffffffffffffffffffffffff16905081600560006101000a81548173ffffffffffffffffffffffffffffffffffffffff021916908373ffffffffffffffffffffffffffffffffffffffff1602179055508173ffffffffffffffffffffffffffffffffffffffff168173ffffffffffffffffffffffffffffffffffffffff167f8be0079c531659141344cd1fd0a4f28419497f9722a3daafe3b4186f6b6457e060405160405180910390a35050565b600073ffffffffffffffffffffffffffffffffffffffff168273ffffffffffffffffffffffffffffffffffffffff161415611156576040517f08c379a000000000000000000000000000000000000000000000000000000000815260040161114d90611ca3565b60405180910390fd5b611162826000836112bd565b60008060008473ffffffffffffffffffffffffffffffffffffffff1673ffffffffffffffffffffffffffffffffffffffff168152602001908152602001600020549050818110156111e8576040517f08c379a00000000000000000000000000000000000000000000000000000000081526004016111df90611d35565b60405180910390fd5b8181036000808573ffffffffffffffffffffffffffffffffffffffff1673ffffffffffffffffffffffffffffffffffffffff16815260200190815260200160002081905550816002600082825461123f9190611d55565b92505081905550600073ffffffffffffffffffffffffffffffffffffffff168373ffffffffffffffffffffffffffffffffffffffff167fddf252ad1be2c89b69c2b068fc378daa952ba7f163c4a11628f55a4df523b3ef846040516112a491906114a0565b60405180910390a36112b8836000846112c2565b505050565b505050565b505050565b600081519050919050565b600082825260208201905092915050565b60005b838110156113015780820151818401526020810190506112e6565b83811115611310576000848401525b50505050565b6000601f19601f8301169050919050565b6000611332826112c7565b61133c81856112d2565b935061134c8185602086016112e3565b61135581611316565b840191505092915050565b6000602082019050818103600083015261137a8184611327565b905092915050565b600080fd5b600073ffffffffffffffffffffffffffffffffffffffff82169050919050565b60006113b282611387565b9050919050565b6113c2816113a7565b81146113cd57600080fd5b50565b6000813590506113df816113b9565b92915050565b6000819050919050565b6113f8816113e5565b811461140357600080fd5b50565b600081359050611415816113ef565b92915050565b6000806040838503121561143257611431611382565b5b6000611440858286016113d0565b925050602061145185828601611406565b9150509250929050565b60008115159050919050565b6114708161145b565b82525050565b600060208201905061148b6000830184611467565b92915050565b61149a816113e5565b82525050565b60006020820190506114b56000830184611491565b92915050565b6000806000606084860312156114d4576114d3611382565b5b60006114e2868287016113d0565b93505060206114f3868287016113d0565b925050604061150486828701611406565b9150509250925092565b600060ff82169050919050565b6115248161150e565b82525050565b600060208201905061153f600083018461151b565b92915050565b60006020828403121561155b5761155a611382565b5b600061156984828501611406565b91505092915050565b60006020828403121561158857611587611382565b5b6000611596848285016113d0565b91505092915050565b6115a8816113a7565b82525050565b60006020820190506115c3600083018461159f565b92915050565b600080604083850312156115e0576115df611382565b5b60006115ee858286016113d0565b92505060206115ff858286016113d0565b9150509250929050565b7f4e487b7100000000000000000000000000000000000000000000000000000000600052602260045260246000fd5b6000600282049050600182168061165057607f821691505b6020821081141561166457611663611609565b5b50919050565b7f4e487b7100000000000000000000000000000000000000000000000000000000600052601160045260246000fd5b60006116a4826113e5565b91506116af836113e5565b9250827fffffffffffffffffffffffffffffffffffffffffffffffffffffffffffffffff038211156116e4576116e361166a565b5b828201905092915050565b7f4f776e61626c653a2063616c6c6572206973206e6f7420746865206f776e6572600082015250565b60006117256020836112d2565b9150611730826116ef565b602082019050919050565b6000602082019050818103600083015261175481611718565b9050919050565b7f6861636b65722077616e742064657374726f7920636f6e747261637421000000600082015250565b6000611791601d836112d2565b915061179c8261175b565b602082019050919050565b600060208201905081810360008301526117c081611784565b9050919050565b7f45524332303a2064656372656173656420616c6c6f77616e63652062656c6f7760008201527f207a65726f000000000000000000000000000000000000000000000000000000602082015250565b60006118236025836112d2565b915061182e826117c7565b604082019050919050565b6000602082019050818103600083015261185281611816565b9050919050565b7f4f776e61626c653a206e6577206f776e657220697320746865207a65726f206160008201527f6464726573730000000000000000000000000000000000000000000000000000602082015250565b60006118b56026836112d2565b91506118c082611859565b604082019050919050565b600060208201905081810360008301526118e4816118a8565b9050919050565b7f45524332303a20617070726f76652066726f6d20746865207a65726f2061646460008201527f7265737300000000000000000000000000000000000000000000000000000000602082015250565b60006119476024836112d2565b9150611952826118eb565b604082019050919050565b600060208201905081810360008301526119768161193a565b9050919050565b7f45524332303a20617070726f766520746f20746865207a65726f20616464726560008201527f7373000000000000000000000000000000000000000000000000000000000000602082015250565b60006119d96022836112d2565b91506119e48261197d565b604082019050919050565b60006020820190508181036000830152611a08816119cc565b9050919050565b7f45524332303a20696e73756666696369656e7420616c6c6f77616e6365000000600082015250565b6000611a45601d836112d2565b9150611a5082611a0f565b602082019050919050565b60006020820190508181036000830152611a7481611a38565b9050919050565b7f45524332303a207472616e736665722066726f6d20746865207a65726f20616460008201527f6472657373000000000000000000000000000000000000000000000000000000602082015250565b6000611ad76025836112d2565b9150611ae282611a7b565b604082019050919050565b60006020820190508181036000830152611b0681611aca565b9050919050565b7f45524332303a207472616e7366657220746f20746865207a65726f206164647260008201527f6573730000000000000000000000000000000000000000000000000000000000602082015250565b6000611b696023836112d2565b9150611b7482611b0d565b604082019050919050565b60006020820190508181036000830152611b9881611b5c565b9050919050565b7f45524332303a207472616e7366657220616d6f756e742065786365656473206260008201527f616c616e63650000000000000000000000000000000000000000000000000000602082015250565b6000611bfb6026836112d2565b9150611c0682611b9f565b604082019050919050565b60006020820190508181036000830152611c2a81611bee565b9050919050565b7f45524332303a206275726e2066726f6d20746865207a65726f2061646472657360008201527f7300000000000000000000000000000000000000000000000000000000000000602082015250565b6000611c8d6021836112d2565b9150611c9882611c31565b604082019050919050565b60006020820190508181036000830152611cbc81611c80565b9050919050565b7f45524332303a206275726e20616d6f756e7420657863656564732062616c616e60008201527f6365000000000000000000000000000000000000000000000000000000000000602082015250565b6000611d1f6022836112d2565b9150611d2a82611cc3565b604082019050919050565b60006020820190508181036000830152611d4e81611d12565b9050919050565b6000611d60826113e5565b9150611d6b836113e5565b925082821015611d7e57611d7d61166a565b5b82820390509291505056fea26469706673582212202266d4886ceb55ce32187ea623e9605a1210733a9c57e1c57e309f59f784d91d64736f6c634300080a0033",
  "linkReferences": {},
  "deployedLinkReferences": {}
}