{
  "_format": "hh-sol-artifact-1",
  "contractName": "PledgeEarn",
  "sourceName": "contracts/MTGToken/Pledge.sol",
  "abi": [
    {
      "anonymous": false,
      "inputs": [
        {
          "indexed": true,
          "internalType": "address",
          "name": "previousOwner",
          "type": "address"
        },
        {
          "indexed": true,
          "internalType": "address",
          "name": "newOwner",
          "type": "address"
        }
      ],
      "name": "OwnershipTransferred",
      "type": "event"
    },
    {
      "inputs": [],
      "name": "_mtgTokenContract",
      "outputs": [
        {
          "internalType": "address",
          "name": "",
          "type": "address"
        }
      ],
      "stateMutability": "view",
      "type": "function"
    },
    {
      "inputs": [],
      "name": "owner",
      "outputs": [
        {
          "internalType": "address",
          "name": "",
          "type": "address"
        }
      ],
      "stateMutability": "view",
      "type": "function"
    },
    {
      "inputs": [],
      "name": "renounceOwnership",
      "outputs": [],
      "stateMutability": "nonpayable",
      "type": "function"
    },
    {
      "inputs": [
        {
          "internalType": "address",
          "name": "tknAdr_",
          "type": "address"
        }
      ],
      "name": "setTknAdr",
      "outputs": [],
      "stateMutability": "nonpayable",
      "type": "function"
    },
    {
      "inputs": [
        {
          "internalType": "address",
          "name": "to",
          "type": "address"
        },
        {
          "internalType": "uint256",
          "name": "TknAmout_",
          "type": "uint256"
        }
      ],
      "name": "transFormTestMtg",
      "outputs": [],
      "stateMutability": "nonpayable",
      "type": "function"
    },
    {
      "inputs": [
        {
          "internalType": "address",
          "name": "from",
          "type": "address"
        },
        {
          "internalType": "uint256",
          "name": "TknAmout_",
          "type": "uint256"
        }
      ],
      "name": "transTestMtgToken",
      "outputs": [],
      "stateMutability": "nonpayable",
      "type": "function"
    },
    {
      "inputs": [
        {
          "internalType": "address",
          "name": "newOwner",
          "type": "address"
        }
      ],
      "name": "transferOwnership",
      "outputs": [],
      "stateMutability": "nonpayable",
      "type": "function"
    }
  ],
  "bytecode": "0x608060405234801561001057600080fd5b5061002d61002261003260201b60201c565b61003a60201b60201c565b6100fe565b600033905090565b60008060009054906101000a900473ffffffffffffffffffffffffffffffffffffffff169050816000806101000a81548173ffffffffffffffffffffffffffffffffffffffff021916908373ffffffffffffffffffffffffffffffffffffffff1602179055508173ffffffffffffffffffffffffffffffffffffffff168173ffffffffffffffffffffffffffffffffffffffff167f8be0079c531659141344cd1fd0a4f28419497f9722a3daafe3b4186f6b6457e060405160405180910390a35050565b61095b8061010d6000396000f3fe608060405234801561001057600080fd5b506004361061007d5760003560e01c80638da5cb5b1161005b5780638da5cb5b146100c6578063a91e869f146100e4578063c6f05e4914610100578063f2fde38b1461011c5761007d565b806366d5bdef14610082578063715018a6146100a057806388eaa6aa146100aa575b600080fd5b61008a610138565b6040516100979190610653565b60405180910390f35b6100a861015e565b005b6100c460048036038101906100bf91906106d5565b6101e6565b005b6100ce610293565b6040516100db9190610653565b60405180910390f35b6100fe60048036038101906100f991906106d5565b6102bc565b005b61011a60048036038101906101159190610715565b61040a565b005b61013660048036038101906101319190610715565b61044e565b005b600160009054906101000a900473ffffffffffffffffffffffffffffffffffffffff1681565b610166610546565b73ffffffffffffffffffffffffffffffffffffffff16610184610293565b73ffffffffffffffffffffffffffffffffffffffff16146101da576040517f08c379a00000000000000000000000000000000000000000000000000000000081526004016101d19061079f565b60405180910390fd5b6101e4600061054e565b565b6000819050600160009054906101000a900473ffffffffffffffffffffffffffffffffffffffff1673ffffffffffffffffffffffffffffffffffffffff166323b872dd8430846040518463ffffffff1660e01b815260040161024a939291906107ce565b6020604051808303816000875af1158015610269573d6000803e3d6000fd5b505050506040513d601f19601f8201168201806040525081019061028d919061083d565b50505050565b60008060009054906101000a900473ffffffffffffffffffffffffffffffffffffffff16905090565b6000819050600160009054906101000a900473ffffffffffffffffffffffffffffffffffffffff1673ffffffffffffffffffffffffffffffffffffffff1663095ea7b330836040518363ffffffff1660e01b815260040161031e92919061086a565b6020604051808303816000875af115801561033d573d6000803e3d6000fd5b505050506040513d601f19601f82011682018060405250810190610361919061083d565b50600160009054906101000a900473ffffffffffffffffffffffffffffffffffffffff1673ffffffffffffffffffffffffffffffffffffffff166323b872dd3085846040518463ffffffff1660e01b81526004016103c1939291906107ce565b6020604051808303816000875af11580156103e0573d6000803e3d6000fd5b505050506040513d601f19601f82011682018060405250810190610404919061083d565b50505050565b80600160006101000a81548173ffffffffffffffffffffffffffffffffffffffff021916908373ffffffffffffffffffffffffffffffffffffffff16021790555050565b610456610546565b73ffffffffffffffffffffffffffffffffffffffff16610474610293565b73ffffffffffffffffffffffffffffffffffffffff16146104ca576040517f08c379a00000000000000000000000000000000000000000000000000000000081526004016104c19061079f565b60405180910390fd5b600073ffffffffffffffffffffffffffffffffffffffff168173ffffffffffffffffffffffffffffffffffffffff16141561053a576040517f08c379a000000000000000000000000000000000000000000000000000000000815260040161053190610905565b60405180910390fd5b6105438161054e565b50565b600033905090565b60008060009054906101000a900473ffffffffffffffffffffffffffffffffffffffff169050816000806101000a81548173ffffffffffffffffffffffffffffffffffffffff021916908373ffffffffffffffffffffffffffffffffffffffff1602179055508173ffffffffffffffffffffffffffffffffffffffff168173ffffffffffffffffffffffffffffffffffffffff167f8be0079c531659141344cd1fd0a4f28419497f9722a3daafe3b4186f6b6457e060405160405180910390a35050565b600073ffffffffffffffffffffffffffffffffffffffff82169050919050565b600061063d82610612565b9050919050565b61064d81610632565b82525050565b60006020820190506106686000830184610644565b92915050565b600080fd5b61067c81610632565b811461068757600080fd5b50565b60008135905061069981610673565b92915050565b6000819050919050565b6106b28161069f565b81146106bd57600080fd5b50565b6000813590506106cf816106a9565b92915050565b600080604083850312156106ec576106eb61066e565b5b60006106fa8582860161068a565b925050602061070b858286016106c0565b9150509250929050565b60006020828403121561072b5761072a61066e565b5b60006107398482850161068a565b91505092915050565b600082825260208201905092915050565b7f4f776e61626c653a2063616c6c6572206973206e6f7420746865206f776e6572600082015250565b6000610789602083610742565b915061079482610753565b602082019050919050565b600060208201905081810360008301526107b88161077c565b9050919050565b6107c88161069f565b82525050565b60006060820190506107e36000830186610644565b6107f06020830185610644565b6107fd60408301846107bf565b949350505050565b60008115159050919050565b61081a81610805565b811461082557600080fd5b50565b60008151905061083781610811565b92915050565b6000602082840312156108535761085261066e565b5b600061086184828501610828565b91505092915050565b600060408201905061087f6000830185610644565b61088c60208301846107bf565b9392505050565b7f4f776e61626c653a206e6577206f776e657220697320746865207a65726f206160008201527f6464726573730000000000000000000000000000000000000000000000000000602082015250565b60006108ef602683610742565b91506108fa82610893565b604082019050919050565b6000602082019050818103600083015261091e816108e2565b905091905056fea2646970667358221220cf1c6ed12d3ccb040bb141f1e9faea593e5e343627a03da8bec504184945781c64736f6c634300080a0033",
  "linkReferences": {},
  "deployedLinkReferences": {}
}